{
  "_format": "hh3-artifact-1",
  "contractName": "Relayer",
  "sourceName": "contracts/Relayer.sol",
  "abi": [
    {
      "inputs": [],
      "stateMutability": "nonpayable",
      "type": "constructor"
    },
    {
      "inputs": [
        {
          "internalType": "address",
          "name": "owner",
          "type": "address"
        }
      ],
      "name": "OwnableInvalidOwner",
      "type": "error"
    },
    {
      "inputs": [
        {
          "internalType": "address",
          "name": "account",
          "type": "address"
        }
      ],
      "name": "OwnableUnauthorizedAccount",
      "type": "error"
    },
    {
      "anonymous": false,
      "inputs": [
        {
          "indexed": true,
          "internalType": "address",
          "name": "previousOwner",
          "type": "address"
        },
        {
          "indexed": true,
          "internalType": "address",
          "name": "newOwner",
          "type": "address"
        }
      ],
      "name": "OwnershipTransferred",
      "type": "event"
    },
    {
      "inputs": [
        {
          "internalType": "uint256",
          "name": "_maxPriorityFee",
          "type": "uint256"
        }
      ],
      "name": "changeMaxPriorityFee",
      "outputs": [],
      "stateMutability": "nonpayable",
      "type": "function"
    },
    {
      "inputs": [
        {
          "internalType": "uint256",
          "name": "_relayerFee",
          "type": "uint256"
        }
      ],
      "name": "changeRelayerFee",
      "outputs": [],
      "stateMutability": "nonpayable",
      "type": "function"
    },
    {
      "inputs": [
        {
          "internalType": "contract IERC20",
          "name": "_token",
          "type": "address"
        }
      ],
      "name": "changeToken",
      "outputs": [],
      "stateMutability": "nonpayable",
      "type": "function"
    },
    {
      "inputs": [],
      "name": "maxPriorityFee",
      "outputs": [
        {
          "internalType": "uint256",
          "name": "",
          "type": "uint256"
        }
      ],
      "stateMutability": "view",
      "type": "function"
    },
    {
      "inputs": [],
      "name": "method",
      "outputs": [
        {
          "internalType": "bytes4",
          "name": "",
          "type": "bytes4"
        }
      ],
      "stateMutability": "view",
      "type": "function"
    },
    {
      "inputs": [],
      "name": "owner",
      "outputs": [
        {
          "internalType": "address",
          "name": "",
          "type": "address"
        }
      ],
      "stateMutability": "view",
      "type": "function"
    },
    {
      "inputs": [
        {
          "internalType": "contract IERC20",
          "name": "withdrawToken",
          "type": "address"
        },
        {
          "internalType": "address",
          "name": "target",
          "type": "address"
        }
      ],
      "name": "recoverFunds",
      "outputs": [],
      "stateMutability": "nonpayable",
      "type": "function"
    },
    {
      "inputs": [
        {
          "internalType": "address",
          "name": "target",
          "type": "address"
        },
        {
          "internalType": "bytes",
          "name": "functionData",
          "type": "bytes"
        },
        {
          "internalType": "address",
          "name": "refundAccount",
          "type": "address"
        }
      ],
      "name": "relay",
      "outputs": [],
      "stateMutability": "nonpayable",
      "type": "function"
    },
    {
      "inputs": [],
      "name": "relayerFee",
      "outputs": [
        {
          "internalType": "uint256",
          "name": "",
          "type": "uint256"
        }
      ],
      "stateMutability": "view",
      "type": "function"
    },
    {
      "inputs": [],
      "name": "renounceOwnership",
      "outputs": [],
      "stateMutability": "nonpayable",
      "type": "function"
    },
    {
      "inputs": [
        {
          "internalType": "contract IERC20",
          "name": "_token",
          "type": "address"
        },
        {
          "internalType": "uint256",
          "name": "_maxPriorityFee",
          "type": "uint256"
        },
        {
          "internalType": "uint256",
          "name": "_relayerFee",
          "type": "uint256"
        },
        {
          "internalType": "bytes4",
          "name": "_method",
          "type": "bytes4"
        }
      ],
      "name": "setup",
      "outputs": [],
      "stateMutability": "nonpayable",
      "type": "function"
    },
    {
      "inputs": [],
      "name": "token",
      "outputs": [
        {
          "internalType": "contract IERC20",
          "name": "",
          "type": "address"
        }
      ],
      "stateMutability": "view",
      "type": "function"
    },
    {
      "inputs": [
        {
          "internalType": "address",
          "name": "newOwner",
          "type": "address"
        }
      ],
      "name": "transferOwnership",
      "outputs": [],
      "stateMutability": "nonpayable",
      "type": "function"
    }
  ],
  "bytecode": "0x608060405234801561000f575f5ffd5b50325f73ffffffffffffffffffffffffffffffffffffffff168173ffffffffffffffffffffffffffffffffffffffff1603610081575f6040517f1e4fbdf70000000000000000000000000000000000000000000000000000000081526004016100789190610196565b60405180910390fd5b6100908161009660201b60201c565b506101af565b5f5f5f9054906101000a900473ffffffffffffffffffffffffffffffffffffffff169050815f5f6101000a81548173ffffffffffffffffffffffffffffffffffffffff021916908373ffffffffffffffffffffffffffffffffffffffff1602179055508173ffffffffffffffffffffffffffffffffffffffff168173ffffffffffffffffffffffffffffffffffffffff167f8be0079c531659141344cd1fd0a4f28419497f9722a3daafe3b4186f6b6457e060405160405180910390a35050565b5f73ffffffffffffffffffffffffffffffffffffffff82169050919050565b5f61018082610157565b9050919050565b61019081610176565b82525050565b5f6020820190506101a95f830184610187565b92915050565b61136d806101bc5f395ff3fe608060405234801561000f575f5ffd5b50600436106100cd575f3560e01c8063715018a61161008a5780638da5cb5b116100645780638da5cb5b146101c1578063b51f5e92146101df578063f2fde38b146101fb578063fc0c546a14610217576100cd565b8063715018a61461017d578063758b54dc1461018757806380184e12146101a3576100cd565b8063127b5c7f146100d157806317d026e6146100ed57806324ae6a27146101095780632c383a9f146101255780632fdeb1111461014357806366829b1614610161575b5f5ffd5b6100eb60048036038101906100e69190610a26565b610235565b005b61010760048036038101906101029190610a26565b610289565b005b610123600480360381019061011e9190610ae6565b61029b565b005b61012d61039a565b60405161013a9190610b5e565b60405180910390f35b61014b6103ac565b6040516101589190610b86565b60405180910390f35b61017b60048036038101906101769190610b9f565b6103b2565b005b61018561046b565b005b6101a1600480360381019061019c9190610bf4565b61047e565b005b6101ab610553565b6040516101b89190610b86565b60405180910390f35b6101c9610559565b6040516101d69190610c67565b60405180910390f35b6101f960048036038101906101f49190610ce1565b610580565b005b61021560048036038101906102109190610d52565b6107f3565b005b61021f610877565b60405161022c9190610dd8565b60405180910390f35b61023d61089c565b5f811161027f576040517f08c379a000000000000000000000000000000000000000000000000000000000815260040161027690610e71565b60405180910390fd5b8060028190555050565b61029161089c565b8060038190555050565b6102a361089c565b8173ffffffffffffffffffffffffffffffffffffffff1663a9059cbb828473ffffffffffffffffffffffffffffffffffffffff166370a08231306040518263ffffffff1660e01b81526004016102f99190610c67565b602060405180830381865afa158015610314573d5f5f3e3d5ffd5b505050506040513d601f19601f820116820180604052508101906103389190610ea3565b6040518363ffffffff1660e01b8152600401610355929190610ece565b6020604051808303815f875af1158015610371573d5f5f3e3d5ffd5b505050506040513d601f19601f820116820180604052508101906103959190610f2a565b505050565b60045f9054906101000a900460e01b81565b60035481565b6103ba61089c565b5f73ffffffffffffffffffffffffffffffffffffffff168173ffffffffffffffffffffffffffffffffffffffff1603610428576040517f08c379a000000000000000000000000000000000000000000000000000000000815260040161041f90610f9f565b60405180910390fd5b8060015f6101000a81548173ffffffffffffffffffffffffffffffffffffffff021916908373ffffffffffffffffffffffffffffffffffffffff16021790555050565b61047361089c565b61047c5f610923565b565b61048661089c565b5f73ffffffffffffffffffffffffffffffffffffffff1660015f9054906101000a900473ffffffffffffffffffffffffffffffffffffffff1673ffffffffffffffffffffffffffffffffffffffff1614610515576040517f08c379a000000000000000000000000000000000000000000000000000000000815260040161050c90611007565b60405180910390fd5b61051e846103b2565b61052783610235565b61053082610289565b8060045f6101000a81548163ffffffff021916908360e01c021790555050505050565b60025481565b5f5f5f9054906101000a900473ffffffffffffffffffffffffffffffffffffffff16905090565b5f5a90505f483a6105919190611052565b90506002548111156105d8576040517f08c379a00000000000000000000000000000000000000000000000000000000081526004016105cf906110f5565b60405180910390fd5b5f617148600e8787905060286105ee9190611113565b6105f89190611146565b6175306106059190611113565b61060f9190611113565b90505f6003543a6106209190611113565b90505f60045f9054906101000a900460e01b8888604051602001610646939291906111e3565b60405160208183030381529060405290505f5f5f8351602085015f8e612ee05a03f19050806106aa576040517f08c379a00000000000000000000000000000000000000000000000000000000081526004016106a19061127c565b60405180910390fd5b5f5f73ffffffffffffffffffffffffffffffffffffffff168873ffffffffffffffffffffffffffffffffffffffff16146106e457876106e6565b335b905060015f9054906101000a900473ffffffffffffffffffffffffffffffffffffffff1673ffffffffffffffffffffffffffffffffffffffff166323b872dd8c8387895a8d6107359190611052565b61073f9190611113565b6107499190611146565b6040518463ffffffff1660e01b81526004016107679392919061129a565b6020604051808303815f875af1158015610783573d5f5f3e3d5ffd5b505050506040513d601f19601f820116820180604052508101906107a79190610f2a565b6107e6576040517f08c379a00000000000000000000000000000000000000000000000000000000081526004016107dd90611319565b60405180910390fd5b5050505050505050505050565b6107fb61089c565b5f73ffffffffffffffffffffffffffffffffffffffff168173ffffffffffffffffffffffffffffffffffffffff160361086b575f6040517f1e4fbdf70000000000000000000000000000000000000000000000000000000081526004016108629190610c67565b60405180910390fd5b61087481610923565b50565b60015f9054906101000a900473ffffffffffffffffffffffffffffffffffffffff1681565b6108a46109e4565b73ffffffffffffffffffffffffffffffffffffffff166108c2610559565b73ffffffffffffffffffffffffffffffffffffffff1614610921576108e56109e4565b6040517f118cdaa70000000000000000000000000000000000000000000000000000000081526004016109189190610c67565b60405180910390fd5b565b5f5f5f9054906101000a900473ffffffffffffffffffffffffffffffffffffffff169050815f5f6101000a81548173ffffffffffffffffffffffffffffffffffffffff021916908373ffffffffffffffffffffffffffffffffffffffff1602179055508173ffffffffffffffffffffffffffffffffffffffff168173ffffffffffffffffffffffffffffffffffffffff167f8be0079c531659141344cd1fd0a4f28419497f9722a3daafe3b4186f6b6457e060405160405180910390a35050565b5f33905090565b5f5ffd5b5f5ffd5b5f819050919050565b610a05816109f3565b8114610a0f575f5ffd5b50565b5f81359050610a20816109fc565b92915050565b5f60208284031215610a3b57610a3a6109eb565b5b5f610a4884828501610a12565b91505092915050565b5f73ffffffffffffffffffffffffffffffffffffffff82169050919050565b5f610a7a82610a51565b9050919050565b5f610a8b82610a70565b9050919050565b610a9b81610a81565b8114610aa5575f5ffd5b50565b5f81359050610ab681610a92565b92915050565b610ac581610a70565b8114610acf575f5ffd5b50565b5f81359050610ae081610abc565b92915050565b5f5f60408385031215610afc57610afb6109eb565b5b5f610b0985828601610aa8565b9250506020610b1a85828601610ad2565b9150509250929050565b5f7fffffffff0000000000000000000000000000000000000000000000000000000082169050919050565b610b5881610b24565b82525050565b5f602082019050610b715f830184610b4f565b92915050565b610b80816109f3565b82525050565b5f602082019050610b995f830184610b77565b92915050565b5f60208284031215610bb457610bb36109eb565b5b5f610bc184828501610aa8565b91505092915050565b610bd381610b24565b8114610bdd575f5ffd5b50565b5f81359050610bee81610bca565b92915050565b5f5f5f5f60808587031215610c0c57610c0b6109eb565b5b5f610c1987828801610aa8565b9450506020610c2a87828801610a12565b9350506040610c3b87828801610a12565b9250506060610c4c87828801610be0565b91505092959194509250565b610c6181610a70565b82525050565b5f602082019050610c7a5f830184610c58565b92915050565b5f5ffd5b5f5ffd5b5f5ffd5b5f5f83601f840112610ca157610ca0610c80565b5b8235905067ffffffffffffffff811115610cbe57610cbd610c84565b5b602083019150836001820283011115610cda57610cd9610c88565b5b9250929050565b5f5f5f5f60608587031215610cf957610cf86109eb565b5b5f610d0687828801610ad2565b945050602085013567ffffffffffffffff811115610d2757610d266109ef565b5b610d3387828801610c8c565b93509350506040610d4687828801610ad2565b91505092959194509250565b5f60208284031215610d6757610d666109eb565b5b5f610d7484828501610ad2565b91505092915050565b5f819050919050565b5f610da0610d9b610d9684610a51565b610d7d565b610a51565b9050919050565b5f610db182610d86565b9050919050565b5f610dc282610da7565b9050919050565b610dd281610db8565b82525050565b5f602082019050610deb5f830184610dc9565b92915050565b5f82825260208201905092915050565b7f4d61785072696f72697479466565206d757374206265206869676865722074685f8201527f616e203000000000000000000000000000000000000000000000000000000000602082015250565b5f610e5b602483610df1565b9150610e6682610e01565b604082019050919050565b5f6020820190508181035f830152610e8881610e4f565b9050919050565b5f81519050610e9d816109fc565b92915050565b5f60208284031215610eb857610eb76109eb565b5b5f610ec584828501610e8f565b91505092915050565b5f604082019050610ee15f830185610c58565b610eee6020830184610b77565b9392505050565b5f8115159050919050565b610f0981610ef5565b8114610f13575f5ffd5b50565b5f81519050610f2481610f00565b92915050565b5f60208284031215610f3f57610f3e6109eb565b5b5f610f4c84828501610f16565b91505092915050565b7f546f6b656e2063616e6e6f7420626520656d70747900000000000000000000005f82015250565b5f610f89601583610df1565b9150610f9482610f55565b602082019050919050565b5f6020820190508181035f830152610fb681610f7d565b9050919050565b7f53657475702077617320616c72656164792063616c6c656400000000000000005f82015250565b5f610ff1601883610df1565b9150610ffc82610fbd565b602082019050919050565b5f6020820190508181035f83015261101e81610fe5565b9050919050565b7f4e487b71000000000000000000000000000000000000000000000000000000005f52601160045260245ffd5b5f61105c826109f3565b9150611067836109f3565b925082820390508181111561107f5761107e611025565b5b92915050565b7f6d61785072696f7269747946656520697320686967686572207468616e2065785f8201527f7065637465640000000000000000000000000000000000000000000000000000602082015250565b5f6110df602683610df1565b91506110ea82611085565b604082019050919050565b5f6020820190508181035f83015261110c816110d3565b9050919050565b5f61111d826109f3565b9150611128836109f3565b92508282019050808211156111405761113f611025565b5b92915050565b5f611150826109f3565b915061115b836109f3565b9250828202611169816109f3565b915082820484148315176111805761117f611025565b5b5092915050565b5f819050919050565b6111a161119c82610b24565b611187565b82525050565b5f81905092915050565b828183375f83830152505050565b5f6111ca83856111a7565b93506111d78385846111b1565b82840190509392505050565b5f6111ee8286611190565b6004820191506111ff8284866111bf565b9150819050949350505050565b7f436f756c64206e6f74207375636365737366756c6c792063616c6c20746172675f8201527f6574000000000000000000000000000000000000000000000000000000000000602082015250565b5f611266602283610df1565b91506112718261120c565b604082019050919050565b5f6020820190508181035f8301526112938161125a565b9050919050565b5f6060820190506112ad5f830186610c58565b6112ba6020830185610c58565b6112c76040830184610b77565b949350505050565b7f436f756c64206e6f7420726566756e642073656e6465720000000000000000005f82015250565b5f611303601783610df1565b915061130e826112cf565b602082019050919050565b5f6020820190508181035f830152611330816112f7565b905091905056fea264697066735822122075c6d55db62f071acc2437a77c6dd81e397319f47d6206d2619192c575d6447064736f6c634300081c0033",
  "linkReferences": {},
  "deployedLinkReferences": {},
  "immutableReferences": {},
  "inputSourceName": "project/contracts/Relayer.sol",
  "buildInfoId": "solc-0_8_28-38ec1d062b2b0dd6fb133a5010c97b4fae81c81b"
}