{
  "address": "0x569212Bc7D93F6B64aE922101BaE91d526A2913b",
  "abi": [
    {
      "inputs": [],
      "stateMutability": "nonpayable",
      "type": "constructor"
    },
    {
      "anonymous": false,
      "inputs": [
        {
          "indexed": true,
          "internalType": "address",
          "name": "previousOwner",
          "type": "address"
        },
        {
          "indexed": true,
          "internalType": "address",
          "name": "newOwner",
          "type": "address"
        }
      ],
      "name": "OwnershipTransferred",
      "type": "event"
    },
    {
      "inputs": [
        {
          "internalType": "uint256",
          "name": "_maxPriorityFee",
          "type": "uint256"
        }
      ],
      "name": "changeMaxPriorityFee",
      "outputs": [],
      "stateMutability": "nonpayable",
      "type": "function"
    },
    {
      "inputs": [
        {
          "internalType": "uint256",
          "name": "_relayerFee",
          "type": "uint256"
        }
      ],
      "name": "changeRelayerFee",
      "outputs": [],
      "stateMutability": "nonpayable",
      "type": "function"
    },
    {
      "inputs": [
        {
          "internalType": "contract IERC20",
          "name": "_token",
          "type": "address"
        }
      ],
      "name": "changeToken",
      "outputs": [],
      "stateMutability": "nonpayable",
      "type": "function"
    },
    {
      "inputs": [],
      "name": "maxPriorityFee",
      "outputs": [
        {
          "internalType": "uint256",
          "name": "",
          "type": "uint256"
        }
      ],
      "stateMutability": "view",
      "type": "function"
    },
    {
      "inputs": [],
      "name": "method",
      "outputs": [
        {
          "internalType": "bytes4",
          "name": "",
          "type": "bytes4"
        }
      ],
      "stateMutability": "view",
      "type": "function"
    },
    {
      "inputs": [],
      "name": "owner",
      "outputs": [
        {
          "internalType": "address",
          "name": "",
          "type": "address"
        }
      ],
      "stateMutability": "view",
      "type": "function"
    },
    {
      "inputs": [
        {
          "internalType": "contract IERC20",
          "name": "withdrawToken",
          "type": "address"
        },
        {
          "internalType": "address",
          "name": "target",
          "type": "address"
        }
      ],
      "name": "recoverFunds",
      "outputs": [],
      "stateMutability": "nonpayable",
      "type": "function"
    },
    {
      "inputs": [
        {
          "internalType": "address",
          "name": "target",
          "type": "address"
        },
        {
          "internalType": "bytes",
          "name": "functionData",
          "type": "bytes"
        },
        {
          "internalType": "address",
          "name": "refundAccount",
          "type": "address"
        }
      ],
      "name": "relay",
      "outputs": [],
      "stateMutability": "nonpayable",
      "type": "function"
    },
    {
      "inputs": [],
      "name": "relayerFee",
      "outputs": [
        {
          "internalType": "uint256",
          "name": "",
          "type": "uint256"
        }
      ],
      "stateMutability": "view",
      "type": "function"
    },
    {
      "inputs": [],
      "name": "renounceOwnership",
      "outputs": [],
      "stateMutability": "nonpayable",
      "type": "function"
    },
    {
      "inputs": [
        {
          "internalType": "contract IERC20",
          "name": "_token",
          "type": "address"
        },
        {
          "internalType": "uint256",
          "name": "_maxPriorityFee",
          "type": "uint256"
        },
        {
          "internalType": "uint256",
          "name": "_relayerFee",
          "type": "uint256"
        },
        {
          "internalType": "bytes4",
          "name": "_method",
          "type": "bytes4"
        }
      ],
      "name": "setup",
      "outputs": [],
      "stateMutability": "nonpayable",
      "type": "function"
    },
    {
      "inputs": [],
      "name": "token",
      "outputs": [
        {
          "internalType": "contract IERC20",
          "name": "",
          "type": "address"
        }
      ],
      "stateMutability": "view",
      "type": "function"
    },
    {
      "inputs": [
        {
          "internalType": "address",
          "name": "newOwner",
          "type": "address"
        }
      ],
      "name": "transferOwnership",
      "outputs": [],
      "stateMutability": "nonpayable",
      "type": "function"
    }
  ],
  "transactionHash": "0x5952172b2bea57c6ca0f0df0ae3c3b6ca36d3ce5d2bf8dc776036532a7d7540f",
  "args": [],
  "numDeployments": 2,
  "solcInputHash": "5e14d9012ec8bf185dac480be583b8b3",
  "bytecode": "0x60806040523480156200001157600080fd5b5062000032620000266200004960201b60201c565b6200005160201b60201c565b62000043326200011560201b60201c565b62000381565b600033905090565b60008060009054906101000a900473ffffffffffffffffffffffffffffffffffffffff169050816000806101000a81548173ffffffffffffffffffffffffffffffffffffffff021916908373ffffffffffffffffffffffffffffffffffffffff1602179055508173ffffffffffffffffffffffffffffffffffffffff168173ffffffffffffffffffffffffffffffffffffffff167f8be0079c531659141344cd1fd0a4f28419497f9722a3daafe3b4186f6b6457e060405160405180910390a35050565b62000125620001ac60201b60201c565b600073ffffffffffffffffffffffffffffffffffffffff168173ffffffffffffffffffffffffffffffffffffffff16141562000198576040517f08c379a00000000000000000000000000000000000000000000000000000000081526004016200018f90620002ed565b60405180910390fd5b620001a9816200005160201b60201c565b50565b620001bc6200004960201b60201c565b73ffffffffffffffffffffffffffffffffffffffff16620001e26200023d60201b60201c565b73ffffffffffffffffffffffffffffffffffffffff16146200023b576040517f08c379a000000000000000000000000000000000000000000000000000000000815260040162000232906200035f565b60405180910390fd5b565b60008060009054906101000a900473ffffffffffffffffffffffffffffffffffffffff16905090565b600082825260208201905092915050565b7f4f776e61626c653a206e6577206f776e657220697320746865207a65726f206160008201527f6464726573730000000000000000000000000000000000000000000000000000602082015250565b6000620002d560268362000266565b9150620002e28262000277565b604082019050919050565b600060208201905081810360008301526200030881620002c6565b9050919050565b7f4f776e61626c653a2063616c6c6572206973206e6f7420746865206f776e6572600082015250565b60006200034760208362000266565b915062000354826200030f565b602082019050919050565b600060208201905081810360008301526200037a8162000338565b9050919050565b61154b80620003916000396000f3fe608060405234801561001057600080fd5b50600436106100cf5760003560e01c8063715018a61161008c5780638da5cb5b116100665780638da5cb5b146101c4578063b51f5e92146101e2578063f2fde38b146101fe578063fc0c546a1461021a576100cf565b8063715018a614610180578063758b54dc1461018a57806380184e12146101a6576100cf565b8063127b5c7f146100d457806317d026e6146100f057806324ae6a271461010c5780632c383a9f146101285780632fdeb1111461014657806366829b1614610164575b600080fd5b6100ee60048036038101906100e99190610a75565b610238565b005b61010a60048036038101906101059190610a75565b61028d565b005b61012660048036038101906101219190610b3e565b61029f565b005b6101306103c1565b60405161013d9190610bb9565b60405180910390f35b61014e6103d4565b60405161015b9190610be3565b60405180910390f35b61017e60048036038101906101799190610bfe565b6103da565b005b610188610496565b005b6101a4600480360381019061019f9190610c57565b6104aa565b005b6101ae610582565b6040516101bb9190610be3565b60405180910390f35b6101cc610588565b6040516101d99190610ccd565b60405180910390f35b6101fc60048036038101906101f79190610d4d565b6105b1565b005b61021860048036038101906102139190610dc1565b610841565b005b6102226108c5565b60405161022f9190610e4d565b60405180910390f35b6102406108eb565b60008111610283576040517f08c379a000000000000000000000000000000000000000000000000000000000815260040161027a90610eeb565b60405180910390fd5b8060028190555050565b6102956108eb565b8060038190555050565b6102a76108eb565b8173ffffffffffffffffffffffffffffffffffffffff1663a9059cbb828473ffffffffffffffffffffffffffffffffffffffff166370a08231306040518263ffffffff1660e01b81526004016102fd9190610ccd565b60206040518083038186803b15801561031557600080fd5b505afa158015610329573d6000803e3d6000fd5b505050506040513d601f19601f8201168201806040525081019061034d9190610f20565b6040518363ffffffff1660e01b815260040161036a929190610f4d565b602060405180830381600087803b15801561038457600080fd5b505af1158015610398573d6000803e3d6000fd5b505050506040513d601f19601f820116820180604052508101906103bc9190610fae565b505050565b600460009054906101000a900460e01b81565b60035481565b6103e26108eb565b600073ffffffffffffffffffffffffffffffffffffffff168173ffffffffffffffffffffffffffffffffffffffff161415610452576040517f08c379a000000000000000000000000000000000000000000000000000000000815260040161044990611027565b60405180910390fd5b80600160006101000a81548173ffffffffffffffffffffffffffffffffffffffff021916908373ffffffffffffffffffffffffffffffffffffffff16021790555050565b61049e6108eb565b6104a86000610969565b565b6104b26108eb565b600073ffffffffffffffffffffffffffffffffffffffff16600160009054906101000a900473ffffffffffffffffffffffffffffffffffffffff1673ffffffffffffffffffffffffffffffffffffffff1614610543576040517f08c379a000000000000000000000000000000000000000000000000000000000815260040161053a90611093565b60405180910390fd5b61054c846103da565b61055583610238565b61055e8261028d565b80600460006101000a81548163ffffffff021916908360e01c021790555050505050565b60025481565b60008060009054906101000a900473ffffffffffffffffffffffffffffffffffffffff16905090565b60005a90506000483a6105c491906110e2565b905060025481111561060b576040517f08c379a000000000000000000000000000000000000000000000000000000000815260040161060290611188565b60405180910390fd5b6000617148600e87879050602861062291906111a8565b61062c91906111fe565b61753061063991906111a8565b61064391906111a8565b905060006003543a61065591906111a8565b90506000600460009054906101000a900460e01b888860405160200161067d939291906112b8565b6040516020818303038152906040529050600080600083516020850160008e612ee05a03f19050806106e4576040517f08c379a00000000000000000000000000000000000000000000000000000000081526004016106db90611354565b60405180910390fd5b60008073ffffffffffffffffffffffffffffffffffffffff168873ffffffffffffffffffffffffffffffffffffffff161461071f5787610721565b335b9050600160009054906101000a900473ffffffffffffffffffffffffffffffffffffffff1673ffffffffffffffffffffffffffffffffffffffff166323b872dd8c8387895a8d61077191906110e2565b61077b91906111a8565b61078591906111fe565b6040518463ffffffff1660e01b81526004016107a393929190611374565b602060405180830381600087803b1580156107bd57600080fd5b505af11580156107d1573d6000803e3d6000fd5b505050506040513d601f19601f820116820180604052508101906107f59190610fae565b610834576040517f08c379a000000000000000000000000000000000000000000000000000000000815260040161082b906113f7565b60405180910390fd5b5050505050505050505050565b6108496108eb565b600073ffffffffffffffffffffffffffffffffffffffff168173ffffffffffffffffffffffffffffffffffffffff1614156108b9576040517f08c379a00000000000000000000000000000000000000000000000000000000081526004016108b090611489565b60405180910390fd5b6108c281610969565b50565b600160009054906101000a900473ffffffffffffffffffffffffffffffffffffffff1681565b6108f3610a2d565b73ffffffffffffffffffffffffffffffffffffffff16610911610588565b73ffffffffffffffffffffffffffffffffffffffff1614610967576040517f08c379a000000000000000000000000000000000000000000000000000000000815260040161095e906114f5565b60405180910390fd5b565b60008060009054906101000a900473ffffffffffffffffffffffffffffffffffffffff169050816000806101000a81548173ffffffffffffffffffffffffffffffffffffffff021916908373ffffffffffffffffffffffffffffffffffffffff1602179055508173ffffffffffffffffffffffffffffffffffffffff168173ffffffffffffffffffffffffffffffffffffffff167f8be0079c531659141344cd1fd0a4f28419497f9722a3daafe3b4186f6b6457e060405160405180910390a35050565b600033905090565b600080fd5b600080fd5b6000819050919050565b610a5281610a3f565b8114610a5d57600080fd5b50565b600081359050610a6f81610a49565b92915050565b600060208284031215610a8b57610a8a610a35565b5b6000610a9984828501610a60565b91505092915050565b600073ffffffffffffffffffffffffffffffffffffffff82169050919050565b6000610acd82610aa2565b9050919050565b6000610adf82610ac2565b9050919050565b610aef81610ad4565b8114610afa57600080fd5b50565b600081359050610b0c81610ae6565b92915050565b610b1b81610ac2565b8114610b2657600080fd5b50565b600081359050610b3881610b12565b92915050565b60008060408385031215610b5557610b54610a35565b5b6000610b6385828601610afd565b9250506020610b7485828601610b29565b9150509250929050565b60007fffffffff0000000000000000000000000000000000000000000000000000000082169050919050565b610bb381610b7e565b82525050565b6000602082019050610bce6000830184610baa565b92915050565b610bdd81610a3f565b82525050565b6000602082019050610bf86000830184610bd4565b92915050565b600060208284031215610c1457610c13610a35565b5b6000610c2284828501610afd565b91505092915050565b610c3481610b7e565b8114610c3f57600080fd5b50565b600081359050610c5181610c2b565b92915050565b60008060008060808587031215610c7157610c70610a35565b5b6000610c7f87828801610afd565b9450506020610c9087828801610a60565b9350506040610ca187828801610a60565b9250506060610cb287828801610c42565b91505092959194509250565b610cc781610ac2565b82525050565b6000602082019050610ce26000830184610cbe565b92915050565b600080fd5b600080fd5b600080fd5b60008083601f840112610d0d57610d0c610ce8565b5b8235905067ffffffffffffffff811115610d2a57610d29610ced565b5b602083019150836001820283011115610d4657610d45610cf2565b5b9250929050565b60008060008060608587031215610d6757610d66610a35565b5b6000610d7587828801610b29565b945050602085013567ffffffffffffffff811115610d9657610d95610a3a565b5b610da287828801610cf7565b93509350506040610db587828801610b29565b91505092959194509250565b600060208284031215610dd757610dd6610a35565b5b6000610de584828501610b29565b91505092915050565b6000819050919050565b6000610e13610e0e610e0984610aa2565b610dee565b610aa2565b9050919050565b6000610e2582610df8565b9050919050565b6000610e3782610e1a565b9050919050565b610e4781610e2c565b82525050565b6000602082019050610e626000830184610e3e565b92915050565b600082825260208201905092915050565b7f4d61785072696f72697479466565206d7573742062652068696768657220746860008201527f616e203000000000000000000000000000000000000000000000000000000000602082015250565b6000610ed5602483610e68565b9150610ee082610e79565b604082019050919050565b60006020820190508181036000830152610f0481610ec8565b9050919050565b600081519050610f1a81610a49565b92915050565b600060208284031215610f3657610f35610a35565b5b6000610f4484828501610f0b565b91505092915050565b6000604082019050610f626000830185610cbe565b610f6f6020830184610bd4565b9392505050565b60008115159050919050565b610f8b81610f76565b8114610f9657600080fd5b50565b600081519050610fa881610f82565b92915050565b600060208284031215610fc457610fc3610a35565b5b6000610fd284828501610f99565b91505092915050565b7f546f6b656e2063616e6e6f7420626520656d7074790000000000000000000000600082015250565b6000611011601583610e68565b915061101c82610fdb565b602082019050919050565b6000602082019050818103600083015261104081611004565b9050919050565b7f53657475702077617320616c72656164792063616c6c65640000000000000000600082015250565b600061107d601883610e68565b915061108882611047565b602082019050919050565b600060208201905081810360008301526110ac81611070565b9050919050565b7f4e487b7100000000000000000000000000000000000000000000000000000000600052601160045260246000fd5b60006110ed82610a3f565b91506110f883610a3f565b92508282101561110b5761110a6110b3565b5b828203905092915050565b7f6d61785072696f7269747946656520697320686967686572207468616e20657860008201527f7065637465640000000000000000000000000000000000000000000000000000602082015250565b6000611172602683610e68565b915061117d82611116565b604082019050919050565b600060208201905081810360008301526111a181611165565b9050919050565b60006111b382610a3f565b91506111be83610a3f565b9250827fffffffffffffffffffffffffffffffffffffffffffffffffffffffffffffffff038211156111f3576111f26110b3565b5b828201905092915050565b600061120982610a3f565b915061121483610a3f565b9250817fffffffffffffffffffffffffffffffffffffffffffffffffffffffffffffffff048311821515161561124d5761124c6110b3565b5b828202905092915050565b6000819050919050565b61127361126e82610b7e565b611258565b82525050565b600081905092915050565b82818337600083830152505050565b600061129f8385611279565b93506112ac838584611284565b82840190509392505050565b60006112c48286611262565b6004820191506112d5828486611293565b9150819050949350505050565b7f436f756c64206e6f74207375636365737366756c6c792063616c6c207461726760008201527f6574000000000000000000000000000000000000000000000000000000000000602082015250565b600061133e602283610e68565b9150611349826112e2565b604082019050919050565b6000602082019050818103600083015261136d81611331565b9050919050565b60006060820190506113896000830186610cbe565b6113966020830185610cbe565b6113a36040830184610bd4565b949350505050565b7f436f756c64206e6f7420726566756e642073656e646572000000000000000000600082015250565b60006113e1601783610e68565b91506113ec826113ab565b602082019050919050565b60006020820190508181036000830152611410816113d4565b9050919050565b7f4f776e61626c653a206e6577206f776e657220697320746865207a65726f206160008201527f6464726573730000000000000000000000000000000000000000000000000000602082015250565b6000611473602683610e68565b915061147e82611417565b604082019050919050565b600060208201905081810360008301526114a281611466565b9050919050565b7f4f776e61626c653a2063616c6c6572206973206e6f7420746865206f776e6572600082015250565b60006114df602083610e68565b91506114ea826114a9565b602082019050919050565b6000602082019050818103600083015261150e816114d2565b905091905056fea2646970667358221220a4a30c108104c7b1e144ff34727d59df000f536be04617a9be0484a390daf57864736f6c63430008090033",
  "devdoc": {
    "author": "Uxío Fuentefría - <uxio@safe.global>",
    "custom:experimental": "This is an experimental contract.",
    "kind": "dev",
    "methods": {
      "changeMaxPriorityFee(uint256)": {
        "params": {
          "_maxPriorityFee": "New MaxPriorityFee clients will be paying"
        }
      },
      "changeRelayerFee(uint256)": {
        "params": {
          "_relayerFee": "New Relayer fee"
        }
      },
      "changeToken(address)": {
        "params": {
          "_token": "New token for paying refunds"
        }
      },
      "constructor": {
        "details": "Init contract"
      },
      "owner()": {
        "details": "Returns the address of the current owner."
      },
      "recoverFunds(address,address)": {
        "details": "Ether recovery is not implemented as contract is not payable",
        "params": {
          "target": "destination for the funds",
          "withdrawToken": "token to recover"
        }
      },
      "relay(address,bytes,address)": {
        "details": "It's responsability of the sender to check if the Safe has enough funds to pay",
        "params": {
          "functionData": "ABI encoded Safe `execTransaction` without the method selector",
          "target": "destination for the refund"
        }
      },
      "renounceOwnership()": {
        "details": "Leaves the contract without owner. It will not be possible to call `onlyOwner` functions anymore. Can only be called by the current owner. NOTE: Renouncing ownership will leave the contract without an owner, thereby removing any functionality that is only available to the owner."
      },
      "setup(address,uint256,uint256,bytes4)": {
        "details": "Init contract",
        "params": {
          "_maxPriorityFee": "MaxPriorityFee clients will be paying, so relayer cannot be abused to drain user funds",
          "_method": "Method id that will be called on the Safe",
          "_relayerFee": "Relayer fee that will be added to the gasPrice when calculating refunds",
          "_token": "Token for paying refunds. Should be the wrapped version of the base currency (e.g. WETH for mainnet)"
        }
      },
      "transferOwnership(address)": {
        "details": "Transfers ownership of the contract to a new account (`newOwner`). Can only be called by the current owner."
      }
    },
    "title": "Safe Relayer - A relayer for Safe multisig wallet",
    "version": 1
  },
  "userdoc": {
    "kind": "user",
    "methods": {
      "recoverFunds(address,address)": {
        "notice": "Recover tokens sent by mistake to this contract"
      },
      "relay(address,bytes,address)": {
        "notice": "Relay a transaction and get refunded"
      }
    },
    "version": 1
  },
  "storageLayout": {
    "storage": [
      {
        "astId": 7,
        "contract": "contracts/Relayer.sol:Relayer",
        "label": "_owner",
        "offset": 0,
        "slot": "0",
        "type": "t_address"
      },
      {
        "astId": 222,
        "contract": "contracts/Relayer.sol:Relayer",
        "label": "token",
        "offset": 0,
        "slot": "1",
        "type": "t_contract(IERC20)190"
      },
      {
        "astId": 224,
        "contract": "contracts/Relayer.sol:Relayer",
        "label": "maxPriorityFee",
        "offset": 0,
        "slot": "2",
        "type": "t_uint256"
      },
      {
        "astId": 226,
        "contract": "contracts/Relayer.sol:Relayer",
        "label": "relayerFee",
        "offset": 0,
        "slot": "3",
        "type": "t_uint256"
      },
      {
        "astId": 228,
        "contract": "contracts/Relayer.sol:Relayer",
        "label": "method",
        "offset": 0,
        "slot": "4",
        "type": "t_bytes4"
      }
    ],
    "types": {
      "t_address": {
        "encoding": "inplace",
        "label": "address",
        "numberOfBytes": "20"
      },
      "t_bytes4": {
        "encoding": "inplace",
        "label": "bytes4",
        "numberOfBytes": "4"
      },
      "t_contract(IERC20)190": {
        "encoding": "inplace",
        "label": "contract IERC20",
        "numberOfBytes": "20"
      },
      "t_uint256": {
        "encoding": "inplace",
        "label": "uint256",
        "numberOfBytes": "32"
      }
    }
  }
}